:020000040000FA
:1000000068020010810200009502000097020000C3
:10001000990200009B0200009D0200000000000009
:100020000000000000000000000000009F0200002F
:10003000A102000000000000A3020000A5020000D1
:10004000A7020000A7020000A7020000A70200000C
:10005000A7020000A7020000A7020000A7020000FC
:10006000A7020000A7020000A7020000A7020000EC
:10007000A7020000A7020000A7020000A7020000DC
:10008000A7020000A7020000A7020000A7020000CC
:10009000A7020000A7020000A7020000A7020000BC
:1000A000A7020000A7020000A7020000A7020000AC
:1000B000A7020000A7020000A7020000A70200009C
:1000C000A7020000A7020000A702000000F002F84B
:1000D00000F03CF80AA090E8000C82448344AAF1A6
:1000E0000107DA4501D100F031F8AFF2090EBAE8A4
:1000F0000F0013F0010F18BFFB1A43F0010318475C
:100100000002000020020000103A24BF78C878C125
:10011000FAD8520724BF30C830C144BF04680C600D
:10012000704700000023002400250026103A28BF55
:1001300078C1FBD8520728BF30C148BF0B60704759
:100140001FB5AFF300801FBD10B510BD00F06CF8F7
:100150001146FFF7F5FF00F007F800F08AF8FFF707
:10016000F3FF00F0BBF800004FF070602B4908620D
:10017000886351E02948406B2949086008460068B7
:1001800000F47000086000202649086004E025485B
:100190000068401C234908602248006844F620613A
:1001A0008842F4D30CE01D48406B1D4908600846A6
:1001B000006800F4700008604FF0706017498863B1
:1001C00017480068B0F5700FEDD015480068B0F51D
:1001D000E00F04D14FF0A0601049C8631CE0104844
:1001E0000068B0F5300F04D14FF020600B49C863B0
:1001F00012E00B480068B0F5500F04D14FF080704A
:100200000649C86308E006480068B0F5600F03D1EE
:100210004FF080600149C863ACE7000000C00920CE
:100220000000001004000010754600F04FF8AE46C4
:1002300005006946534620F00700854618B020B5F2
:1002400000F032F8BDE820404FF000064FF0000704
:100250004FF000084FF0000B21F00701AC46ACE86E
:10026000C009ACE8C009ACE8C009ACE8C0098D46DB
:1002700070470446AFF300802046FFF770FF000090
:100280000C484FF0553101600B484FF0553101607B
:100290000A480047FEE7FEE7FEE7FEE7FEE7FEE767
:1002A000FEE7FEE7FEE7FEE705480649044A064B7F
:1002B00070470000A8C10F40ACC10F40CD00000046
:1002C00068000010680200106800001000487047C5
:1002D00008000010704770477047000003494FF056
:1002E0001800ABBE704700000900000026000200A5
:1002F000704700000000000000000000FFFFFFFF4B
:1003000020030000000000100800000008010000A9
:100310002803000008000010600200002401000013
:080320000000000000000000D5
:04000005000000CD2A
:00000001FF
