:020000040000FA
:1000000068020010410F0000550F0000570F00005C
:10001000590F00005B0F00005D0F000000000000A2
:100020000000000000000000000000005F0F000062
:10003000610F000000000000630F0000650F00006A
:10004000670F0000670F0000670F0000670F0000D8
:10005000670F0000670F0000670F0000670F0000C8
:10006000670F0000670F0000670F0000670F0000B8
:10007000670F0000670F0000670F0000670F0000A8
:10008000670F0000670F0000670F0000670F000098
:10009000670F0000670F0000670F0000670F000088
:1000A000670F0000670F0000670F0000670F000078
:1000B000670F0000670F0000670F0000670F000068
:1000C000670F0000670F0000670F000000F002F8E4
:1000D00000F04CF80AA090E8000C82448344AAF196
:1000E0000107DA4501D100F041F8AFF2090EBAE894
:1000F0000F0013F0010F18BFFB1A43F0010318475C
:100100007018000090180000103A24BF78C878C119
:10011000FAD8520724BF30C830C144BF04680C600D
:10012000704700000023002400250026103A28BF55
:1001300078C1FBD8520728BF30C148BF0B60704759
:10014000662900F0D980782900F058800020704797
:100150001FB5AFF3008000F09DF8040000200021DF
:1001600001F0E4FAE0601FBD10B510BD00F082FEA2
:100170001146FFF7EDFF00F0C3F800F09DF8FFF720
:10018000F3FF00F0A3F800000FB408491CB506AB5C
:100190006A4679440090059800F063F800206946AB
:1001A00000F072F81CBC5DF814FB0000F3000000C6
:1001B00070B50446856900683026C10600D4202643
:1001C000C00709D106E0D4E9012130469047206AF2
:1001D000401C20626D1EF6D570BD70B50446856961
:1001E0000068C00709D006E0D4E90121202090472B
:1001F000206A401C20626D1EF6D570BD70B50446A5
:100200000D4621461068AFF300802168090502D52C
:10021000104A7A4402E00F4A7A440E32002104F177
:10022000240306E000F00F064FEA1010965D5E54BE
:10023000491C0028F6D120680023000704D5702D42
:1002400002D009B1113202232046BDE8704000F00F
:10025000ABBA00009E16000001694A1C02610878D2
:10026000704710B50C46194690B0CDE90242002205
:100270000692044A7A44CDE9042001A800F004FA69
:1002800010B010BDE1FFFFFF0A6802F8010B0A6021
:1002900070470000014870477047000028000010B8
:1002A0004FF00A01B0FBF1F202FB1101104670475A
:1002B00000487047080000100446AFF30080204655
:1002C000FFF75DFF704770477047000003494FF02C
:1002D0001800ABBE704700000900000026000200B5
:1002E00070470000014801F08EBA00000000C07F96
:1002F0004FF0804201F074BA00F0A1BBFFFFFFFF96
:10030000F0B58DB056A000680890564905A81CC9E4
:100310001CC000BF02A81CC91CC000F0F6F852485F
:10032000C06840F070405049C8605048006840F4D0
:1003300080504E49C439C1F8C40080204C4908603F
:1003400000F0C5F84FF4487000F0A0F805A800F0E0
:1003500080F9C0204649086000F0B9F84FF44870B1
:1003600000F094F802A800F074F978E0414842499E
:100370000860002600E0761CB6F5FA6FFBD300BFDC
:100380003D484468B4F1004FFAD044682409C4F3EE
:100390000B044FF4A5716143080BFFF7A9FF074653
:1003A000384601F0EFF90B460246CDE9000133A1D2
:1003B0000BA8FFF7E9FE2F4810382F4908600026E8
:1003C00000E0761CB6F5FA6FFBD300BF2A48406800
:1003D0000546B0F1004FF9D0274845682D09C5F30F
:1003E0000B052A4627A109A8FFF7CEFE002600E04C
:1003F000761CB6F5FA6FFBD385201D49086000F026
:1004000066F84FF4487000F041F80BA800F021F9AD
:10041000CA201749086000F05AF808A800F019F936
:10042000CB201349086000F052F84FF4487000F0F8
:100430002DF809A800F00DF9002600E0761C1248FE
:100440008642FBD3002605E0002009A988550BA9A8
:100450008855761C072EF7D300BF002500BF85E71F
:10046000202020009C18000000C00240C4C00F40A3
:1004700000000010200020010040034025332E33EF
:100480006600000025780000400D0300002100E018
:10049000491C8142FCD370474FF470707749C861A2
:1004A0001020C8612020C861704700B5FFF7F4FF35
:1004B00073480068714948611020C8612020886134
:1004C0001920FFF7E3FF20206C49C86100BD00B58B
:1004D0006C48006800F0F000694908600846006850
:1004E00080000860FFF7E1FF6648006800F00F0039
:1004F000634908600846006880010860FFF7D5FF7F
:100500004FF47A70FFF7C2FF00BD00B55B4800688A
:1005100040F47070594908600846006840F01000C7
:1005200008600846006840F020000860FFF7B4FF4C
:100530004FF44860FFF7AAFFC02051490860FFF759
:10054000B4FF47F23050FFF7A1FFC0204C490860CC
:10055000FFF7ABFF47F23050FFF798FFC020484944
:100560000860FFF7A2FF47F23050FFF78FFF8020AF
:1005700043490860FFF799FF47F23050FFF786FFC5
:10058000282040490860FFF7A2FF47F23050FFF7EC
:100590007DFF0C203B490860FFF799FF4FF448703E
:1005A000FFF774FF062037490860FFF790FF4FF40C
:1005B0004870FFF76BFF012032490860FFF787FFA3
:1005C00042F21070FFF762FF80202E490860FFF7AB
:1005D0007EFF4FF44870FFF759FF00BD00B5FFF7ED
:1005E0005BFF27480068254948611020886120206A
:1005F00088611920FFF74AFF20202049C86100BD0B
:1006000000B52048006800F0F0001D490860084669
:10061000006880000860FFF7E1FF1A48006800F0FA
:100620000F00174908600846006880010860FFF75E
:10063000D5FF4FF47A70FFF729FF00BD00B5012008
:1006400010490860FFF743FF42F21070FFF71EFFEA
:1006500000BD10B5034600240CE0185D0949086090
:10066000FFF7CEFF641C102C04D1C02005490860A0
:10067000FFF72DFF185D0028EFD110BD00C0092045
:1006800004000010000000102DE9F05F4FF0000B97
:10069000044689464FF0010AC0F820B02046E168C0
:1006A000884700287DD0252802D0D4E9012173E0B5
:1006B000E168204600268847C4F81CB0054600279C
:1006C000C4F818B02A2D10D1204659F8041B04EBA9
:1006D00087029161E1688847012F054627D1E069CB
:1006E00000282FDA26F020062CE0A5F13000524633
:1006F0000A28014619D2C2B104EB8700924680460F
:10070000816108E0D8F8180000EB800005EB40009C
:100710003038C8F818002046E16888470546303868
:1007200051460A2801D20029ECD1012F0AD02E2DE2
:1007300008D12046E16888477F1C0546022F46F015
:100740002006BFDBA069002803DA404246F001061C
:10075000A061F00701D026F01006CDB1A5F141004F
:10076000192802D8203546F400664A462946204614
:1007700026604E46FFF7E4FC58B1012802D106F18D
:1007800004098BE7F61D26F0070000F1080985E74C
:1007900007E0D4E9012128469047206A401C2062E6
:1007A0007CE7206ABDE8F09F2DE9F0470D4604463E
:1007B0009246994600F124080168880604D5E0694C
:1007C00021F01001216000E001200027A84200DD97
:1007D000471BA1697A1902EB0900081AA061206879
:1007E000C00602D42046FFF7E3FC002608E0D4E967
:1007F00001211AF806009047206A401C761C2062EE
:100800004E45F4DB2068C0060AD52046FFF7D0FC31
:1008100006E0D4E9012130209047206A401C206284
:10082000381EA7F10107F4DC07E0D4E9012118F82C
:1008300005009047206A401C2062281EA5F1010592
:10084000F3DC2046FFF7C9FC21680220090600D42A
:100850000120BDE8F08770472DE9FF4F0C46984610
:100860008DB0D2E90010DDF868A0CDE90810C0F322
:100870000A550DB94FF0FF35002108464FF0000032
:10088000099900F44000002905DA00EB80004FF4DC
:10089000400101EA50004FEA905BBBF1010F01DD1E
:1008A0004FF0FF3BDDE9080150EA410016D1BAF1F3
:1008B000010F02D16FEA080207E0302101E0215464
:1008C000401C4045FBDB40460022002121540D998D
:1008D000C1E9010A0A6011B0BDE8F08FA5F2FF3549
:1008E00044F610504543CBF100000B904FEA2549E8
:1008F000BAF1000F03D1A9EB08056D1C01E0C8F1A6
:1009000000050B9A002D00DC5A46294601DAC5F194
:10091000000103A800F046FADDE9081000F036FBFC
:10092000A0F500501F388DE807000398002D09DD61
:1009300042F21F015A46084403A90390684600F09A
:1009400096FD08E0A0F500505A461F3803A9039011
:10095000684600F0A0FD8DE807000004000C03D0FD
:100960004FF0FF356E0801E00E461546BAF1000F54
:1009700025D1474607E03146284600F090F930324D
:1009800005460E46E2557F1EF5D50023012786EA6F
:10099000030185EA03000843CDF81C8003D000273B
:1009A00009F1010005E02078302803D10027A9F1E2
:1009B00001008146002FCDF8189099D034E0002036
:1009C0000A9007460AE0112F0FDA3146284600F058
:1009D00066F9303205460E46E2557F1C002386EA52
:1009E000030185EA03000843EDD1002386EA0301F1
:1009F00085EA0300084310D13846002104E0235C57
:100A0000625C6354491C2254401E8142F7DBA7EB11
:100A10000800401ECDE9060706E00A9820B94FF00D
:100A200011084FF0000A63E7079A0020A0540D98C0
:100A3000C0F808A007994160069901604BE72DE9CD
:100A4000F04F04468846D21D22F0070091B0D0E94D
:100A50000010CDE902100146029800F052FE039901
:100A6000CA0F4FF02D0106D122682B21930702D423
:100A7000202101EAC20103288B4601D0072806DBAA
:100A80005B4602464146204600F04EF905E12068EB
:100A9000800601D5E76900E006271120B8F1650F4F
:100AA0001ED0B8F1660F29D0B8F1670F62D1012FBF
:100AB00000DA01270023112F009300DC384603469B
:100AC00002AA06A90EA8FFF7C7FE20683D46002629
:100AD000000734D40F98A84200DA054606A827E09C
:100AE0000023112F009300DA781C034602AA06A9FE
:100AF0000EA8FFF7B1FE00267D1C26E001234FF073
:100B0000004902AA06A90EA800933B46FFF7A4FEDF
:100B1000DDE90F50002610B90E99781C0D18781BCE
:100B200002D47D1CC0F1FF36A5EB070A22E06D1E42
:100B3000012D04DD411911F8011C3029F7D00E9860
:100B4000B84202DA10F1040F03DA4FF0010A0E98EE
:100B50000FE0002802DC2D1A064404E0401CA842E5
:100B600001DD0E9D6D1C0E98801B00F1010A4FF0F7
:100B7000004081462068000703D4AA4501DB4FF0FE
:100B8000FF3A0020B9F1004F0DF117078DF817005B
:100B900024D04FF002082B20B9F1000F01900BDA9E
:100BA0002D20C9F10009019006E04846FFF778FBC7
:100BB0003031814607F8011DB8F10000A8F10108A5
:100BC000F3DCB9F1000FF0D1019807F8010D2168AD
:100BD0004520090500D4652007F8010D04A8C01BB5
:100BE00000F107085FEA0B0000D00120411901EB7A
:100BF000EA7101EB0800A169081A401EA061206893
:100C0000C00602D42046FFF7D3FABBF1000F06D08E
:100C10005846D4E901219047206A401C2062206890
:100C2000C00625D52046FFF7C3FA21E0002E07DBDA
:100C30000F98B04204DD06A8D4E90121805D02E0EE
:100C4000D4E9012130209047206A401C2062761CA4
:100C5000AAF101005FEA000A0AD1FFF71BFBC06896
:100C60000168405CD4E901219047206A401C206261
:100C7000281EA5F10105D9DC07E0D4E9012117F808
:100C8000010B9047206A401C2062B8F10000A8F1D7
:100C90000108F2DC2046FFF7A0FA02201BE630B57F
:100CA000B0F10A024FEA900E71F100034EEA817E24
:100CB000B0EB0E0061EB91014FEA101E4EEA017E8F
:100CC00010EB0E0041EB11114FEA102E4EEA016EAF
:100CD00010EB0E0041EB11214FEA104E4EEA014E8F
:100CE00010EB0E0041EB1141401841F100014FEAB9
:100CF000D00040EA41704FEAD10110EB80054FEA85
:100D0000810444EA907444EB01046D1944EB04043B
:100D1000521BA3414FF0000348BF0A3200D530BD3B
:100D2000401C41F1000130BD2DE9F04104461F4651
:100D300003260168072A01F4006003DB15A520B92A
:100D400015A502E015A500B915A521F01000206039
:100D5000A069C01EA0610FB1401EA0612046FFF730
:100D600027FA0FB9206A06E0D4E9012138469047F6
:100D7000206A401C2062C01C206204E0D4E90121EA
:100D800015F8010B9047761EF8D22046FFF725FA9A
:100D9000BDE8F0814E414E006E616E00494E460046
:100DA000696E66002DE9F047174681468AB0304AE1
:100DB0007A4407A838CA01F5DC511B3138C038CA5B
:100DC00004A8372238C091FBF2F0A0F1800502FBA5
:100DD00010141B3C02D56442012000E00020DFF823
:100DE00090A080460026FA44AAF1B20A0DE0E0077E
:100DF00009D03A4606EB46000AEB800107A800F04E
:100E00004AFB07AB07C36410761C002CEFD1DFF858
:100E100060A001AEFA44AAF1A40A16E0E80712D0D5
:100E20000AEB041090E80E0086E80E00C068F84255
:100E300002D10398384403903A4601A904A800F06F
:100E40002AFB04AB07C36D10641C002DE6D13A46A3
:100E5000B8F1000F07A904A802D000F008FB01E0D8
:100E600000F019FBA9E807000AB0BDE8F087000010
:100E7000A40B00007546FFF71BFAAE460500694655
:100E8000534620F00700854618B020B500F06CF8F6
:100E9000BDE820404FF000064FF000074FF000087B
:100EA0004FF0000B21F00701AC46ACE8C009ACE8FC
:100EB000C009ACE8C009ACE8C0098D467047000025
:100EC0004FF0013C50F8042B51F8043B9A4221D1D9
:100ED000A2EB0C03934313EACC1317D150F8042B65
:100EE00051F8043B9A4215D1A2EB0C03934313EA49
:100EF000CC130BD150F8042B51F8043B9A4209D182
:100F0000A2EB0C03934313EACC13DBD04FF00000A9
:100F100070470000D01A01BAB1FA81F101F018014E
:100F200022FA01F0CB40C1F12001DBB2C0B2C01AFD
:100F30002CFA01F3D11A914311EAC311E6D170479B
:100F40000C484FF0553101600B484FF055310160AE
:100F50000A480047FEE7FEE7FEE7FEE7FEE7FEE79A
:100F6000FEE7FEE7FEE7FEE705480649044A064BB2
:100F700070470000A8C10F40ACC10F40CD00000079
:100F80006800001068020010680000105FEA400C62
:100F900008BF91F0000F4FEA8C234FEAC12243EAC9
:100FA00051514FEA1C5018BF00F5F0404FEA300095
:100FB00018BF41F000415FEA6C5C00F02980BCF191
:100FC000FF3F08BF40F080407047130C06BF12047B
:100FD0004FF0100C4FF0000C130E04BF12020CF176
:100FE000080C130F04BF12010CF1040C930F04BF83
:100FF00092000CF1020CD30F04BF52000CF1010C53
:1010000011464FF00002A0F11F00A0EB0C0070474A
:1010100011F0004F08BF704731F000413FF4D5AFE9
:101020000B0C06BF09044FF0100C4FF0000C0B0E18
:1010300004BF09020CF1080C0B0F04BF09010CF1ED
:10104000040C8B0F04BF89000CF1020CCB0F04BF02
:1010500049000CF1010CCCF12003A0EB0C0022FAAA
:1010600003F302FA0CF241EA030100F101007047B8
:1010700020F07F4C80EA030023F07F47ACEB0703AE
:1010800003F57C5300F0004003F1FF032DE9804994
:101090004FEA154B09B44FEA144325EA0B4E24EAF4
:1010A00003480FF2042606EB132749083E785FEA4F
:1010B000320203FB0667C7F5000707FB06F64FEA97
:1010C00054374FEAD64606F1020607FB066CCCF110
:1010D000005C4FEA1C472CEA074C07FB06F40CFBAC
:1010E00006F504EB15464FEA961634BF00204FF084
:1010F00000404FEAD13706FB07FC4FEA1C4C0CFBC3
:101100000BF7D21B03FB0CF761EB07010CFB0EF78F
:10111000B0EB074072EB17420CFB08F734BFA2EBB1
:101120000742B2EB074261EB17414FEA0C444FEA2A
:10113000910706FB07FC4FEA1C4C0CFB0BF7B0EBCE
:10114000C74072EB573203FB0CF734BFA2EBC74228
:10115000B2EBC74261EB57310CFB0EF7B0EBC700A7
:1011600072EB57720CFB08F734BFA2EBC702B2EB6D
:10117000C70261EB5771039F4FEA816141EA921107
:1011800004EBCC044FEAD1374FEA826206FB07FC3E
:1011900042EA90124FEA80604FEA1C4C0CFB0BF7BE
:1011A000D21B03FB0CF761EB07010CFB0EF7B0EB56
:1011B000074072EB17420CFB08F734BFA2EB074263
:1011C000B2EB074261EB17414FEA8C554FEA9107AA
:1011D00004EB9C2406FB07FC4FEA1C4C0CFB0BF7B2
:1011E000B0EBC74072EB573203FB0CF734BFA2EBF6
:1011F000C742B2EBC74261EB57310CFB0EF7B0EBC5
:10120000C70072EB57720CFB08F734BFA2EBC702A2
:10121000B2EBC70261EB577115EB4C254FEA8161C8
:1012200041EA92114FEA82624FEAD13742EA9012C4
:1012300006FB07FC44F100044FEA80604FEA1C4CB7
:101240000CFB0BF7D21B03FB0CF761EB07010CFB4C
:101250000EF7B0EB074072EB17420CFB08F734BFF8
:10126000A2EB0742B2EB074261EB174115EB1C15ED
:101270004FEA813141EA92414FEA823242EA90429A
:101280004FEA80304FEA0C7644F1000448EA034309
:101290004EEA0B484FF0000EB2EB080C71EB03075F
:1012A00024BF624639464EEB0E0E4FF0000B00187D
:1012B000524149414BEB0B0BB2EB080C71EB0307AE
:1012C0007BF1000B24BF624639464EEB0E0E4FF009
:1012D000000B0018524149414BEB0B0BB2EB080CD1
:1012E00071EB03077BF1000B24BF624639464EEBDE
:1012F0000E0E51EA020718BF46F0010616EB0E76F5
:1013000055F1000254F1000103D5BDE88901BDE8A3
:101310000088BDE88901BDE80048B619524141EB9B
:101320000101A3F10103704780807F7E7D7C7B7A81
:101330007978777676757473727171706F6E6E6D81
:101340006C6C6B6A6A696868676666656464636327
:1013500062616160605F5F5E5E5D5D5C5C5B5B5AAD
:101360005A5959585857575656555555545453531A
:1013700052525251515050504F4F4F4E4E4D4D4D75
:101380004C4C4C4B4B4B4A4A4A49494948484847C0
:1013900047474746464645454544444444434343FE
:1013A0004342424242414141002B26D4770021D0A2
:1013B0001CB54FEA370703B44FF010004FF010018F
:1013C0004FF000000FBCBDE810400BF1010BBBF16A
:1013D000010F08BF5FEA170722BF12F1010211F1E6
:1013E00001014FF0004143F1000300F0004043EAE7
:1013F00000007047F9D35708DAE746EA064613F1CA
:10140000400F4FEA16461FDD13F1200FDFBF1643D2
:101410000A46002120335B42C8D0C3F1200746EAC8
:10142000064602FA07F74FEA164646EA0706C3F1F0
:10143000200722FA03F201FA07F721FA03F14FF02D
:10144000000342EA0702B1E746EA020646EA064618
:101450004FEA164646EA0106BCBF46EA0646360C87
:101460004FF000034FF000024FF000019EE72DE91E
:10147000C048934630B491E8380007C831EA400CC0
:1014800048BF34EA430C03D5FFF7F2FDFFF78CFFAA
:10149000F0BCBDE800882DE9C048934630B491E81F
:1014A000380007C810F0804F08BF13F0804F03D1F9
:1014B00000F005F8FFF778FFF0BCBDE8008820F0E9
:1014C0007F4780EA030023F07F4C07EB0C03A3F572
:1014D0007C5300F00040A3F1FE0392F0000F00F0F7
:1014E000B38095F0000F00F077802DE901494FEAB5
:1014F00011404FEA144621EA004800FB06FC24EAAA
:10150000064708FB06F607FB08F800FB07F718EB91
:1015100006484CEB164C4FEA124B18EB07484FEAC3
:1015200015464CEB174022EA0B4E0BFB06FC25EA56
:1015300006470EFB06F607FB0EFE0BFB07F71EEB3E
:10154000064E4CEB164C4FF000061EEB074E4CEBD4
:10155000174B18EB0B0840F1000018EB0E0B58EB83
:10156000000840F100008F1A4FF000013CBFC94352
:10157000661B14BFB5EB040C00213CBFC943F61B2E
:101580004FEA17444EEA8E0E27EA04454FEA1C47FD
:1015900004FB07622CEA074C05FB07F70CFB05F67A
:1015A00004FB0CFC16EB074642EB174216EB0C460D
:1015B00042EB1C421BEB060658EB0202414146EA95
:1015C0009E0601D5BDE80189B619524141EB0101E2
:1015D000A3F10103BDE801894FEA14454FEA114721
:1015E00024EA054621EA074C05FB07F406FB07F74A
:1015F0000CFB06F105FB0CFC11EB074144EB174417
:101600004FEA124711EB0C4144EB1C4422EA074C11
:1016100005FB07F206FB07F70CFB06F605FB0CFCC7
:1016200016EB074642EB174216EB0C4642EB1C4505
:101630006A1854F1000148BF7047B619524141EB96
:101640000101A3F10103704795F0000F37D04FEA75
:1016500011424FEA144721EA024624EA074C02FBF2
:1016600007F106FB07F70CFB06F402FB0CFC14EB7E
:10167000074441EB17414FEA154714EB0C4441EB8B
:101680001C4125EA074C02FB07F506FB07F70CFB9C
:1016900006F602FB0CFC16EB074645EB174516EB6E
:1016A0000C4645EB1C42121951F1000148BF70472E
:1016B000B619524141EB0101A3F1010370474FEA12
:1016C00014454FEA114724EA054621EA074C05FB79
:1016D00007F106FB07F70CFB06F24FF0000605FBCF
:1016E0000CFC12EB074241EB174112EB0C4251EBA1
:1016F0001C4148BF7047921841EB0101A3F101035F
:101700007047490050EAC12000D004204A0D01D0A2
:1017100040F0010040F2FF72B2EB515F01D140F0A6
:101720000200012800D105207047000010B50029F3
:101730000AD00878002807D005487844FFF7C0FB96
:10174000002801D0002010BD0248784410BD0000E0
:10175000560200004E02000010F0004314BF414248
:10176000014643F08043B1FA81FC03F1F87311FAAA
:101770000CF1A3EB0C534FEA415008BF704703EB49
:10178000E121704700F5000C1CF0FE4F09D0C1109C
:101790004FEA407001F1605158BF7047A1F1E0413C
:1017A00070471CF4000F08D00146400008BF704786
:1017B0004FF000004FEA30017047DFF814C04202DA
:1017C0007EF490ADAFF3008040F4E0011046704726
:1017D0001800000410F0004218BF404242F080425E
:1017E000B0FA80F18840A2EBC15202F1786208BFE2
:1017F0007047410642EB202018BF5FF0806C28BF85
:1018000020F0010070470CF00F03092B08BF0820DF
:1018100000F02B800A2B0BD0082B18BF704708BF95
:101820001CF0400F0AD04FF000004FF0000170474D
:101830001CF0400F18BF4FF0004070471CF0100F15
:1018400008D020F0704300F07F4242EAD3014FEA13
:101850004370704700F0604021F07F4242EA00028E
:1018600001F07F4040EA727070471CF4801F11D075
:101870001CF4E02F03D06FEACC31490070474FF0E1
:101880004050EFF3008222F0704242EA000282F3FD
:10189000008870474FF000007047000054454D50DD
:1018A0003A00000000000000676173206C657665F7
:1018B0006C3A0000303132333435363738394142F2
:1018C00043444546403058003031323334353637A2
:1018D0003839616263646566403078000240000018
:1018E000000000A00000000005400000000000C84B
:1018F000000000000C4000000000409C00000000C0
:10190000194000000020BCBE000000003440000070
:10191000BFC91B8E00000004B5400000504BCFD063
:101920006607E2CF010000006C4100003E8251AA30
:10193000DFEEA73401000000D9420000DCB5A0E2D0
:101940003A301F97FFFFFFFFB4450000FD25A0C8F8
:10195000E9A3C14FFFFFFFFFFF3F00000000008031
:1019600000000000FF3F00000000008000000000B9
:10197000AC19000000000010080000000801000081
:10198000B4190000080000106002000024010000EB
:101990001C00000043000000F8FFFFFF0C000000E7
:1019A0000E0000000F0000002E00000000000000EC
:0419B0000000000033
:04000005000000CD2A
:00000001FF
