:020000040000FA
:1000000068020010DD0E0000F10E0000F30E00008B
:10001000F50E0000F70E0000F90E000000000000D1
:10002000000000000000000000000000FB0E0000C7
:10003000FD0E000000000000FF0E0000010F000098
:10004000030F0000030F0000030F0000030F000068
:10005000030F0000030F0000030F0000030F000058
:10006000030F0000030F0000030F0000030F000048
:10007000030F0000030F0000030F0000030F000038
:10008000030F0000030F0000030F0000030F000028
:10009000030F0000030F0000030F0000030F000018
:1000A000030F0000030F0000030F0000030F000008
:1000B000030F0000030F0000030F0000030F0000F8
:1000C000030F0000030F0000030F000000F002F810
:1000D00000F049F80AA090E8000C82448344AAF199
:1000E0000107DA4501D100F03EF8AFF2090EBAE897
:1000F0000F0013F0010F18BFFB1A43F0010318475C
:10010000C01F0000E01F0000103A24BF78C878C16B
:10011000FAD8520724BF30C830C144BF04680C600D
:10012000704700000023002400250026103A28BF55
:1001300078C1FBD8520728BF30C148BF0B60704759
:10014000662901F02087002070471FB5AFF30080BB
:1001500000F0CEF804000020002101F0C3FAE060B6
:100160001FBD10B510BD00F04DFE1146FFF7EDFFAD
:1001700000F006F800F06BFEFFF7F3FF00F0D8FE8A
:1001800070B590B00024002549A000680B90494943
:1001900008A80EC90EC000F001FA00F0F0F88020A7
:1001A0004549086000F0CDF84FF4487000F0A8F819
:1001B00008A800F088F94148006840F480603F4991
:1001C00008600846006820F4006008600846C069BE
:1001D00040F48060C8616AE03848406940F480605B
:1001E000364948610A2000F0F0F93448C06940F40B
:1001F00080603249C86100BF3048406910F4006F28
:10020000FAD000F0D4F900BF2C48406910F4006F18
:10021000FAD100F0D3F90446204601F0D3FCCDE931
:10022000060127A00CC8069801F0E2FCCDE9040104
:1002300025A00CC8049801F0DBFCCDE9020124A044
:100240000CC8029801F0BEFACDE9000101F060FA95
:100250000546284601F026FE0B460246CDE906017A
:100260001DA10EA800F0D0F9002600E0761CB6F51E
:10027000FA6FFBD3C0201049086000F062F84FF419
:10028000487000F03DF80EA800F01DF9002600E0CF
:10029000761C13488642FBD3002605E000200CA9FB
:1002A00088550EA98855761C072EF7D3002593E7AD
:1002B00020202000202000000000001000C00920A5
:1002C000006F8104C58FA13F0000000000002440A2
:1002D000000000000000004025332E3366000000BF
:1002E000400D03000A6802F8010B0A607047000025
:1002F000014870477047000028000010FFFFFFFF13
:10030000002100E0491C8142FCD370474FF470701B
:100310007749C8611020C8612020C861704700B5C6
:10032000FFF7F4FF73480068714948611020C86105
:10033000202088611920FFF7E3FF20206C49C86165
:1003400000BD00B56C48006800F0F0006949086025
:100350000846006880000860FFF7E1FF6648006813
:1003600000F00F00634908600846006880010860DB
:10037000FFF7D5FF4FF47A70FFF7C2FF00BD00B55D
:100380005B48006840F4707059490860084600688E
:1003900040F0100008600846006840F02000086047
:1003A000FFF7B4FF4FF44860FFF7AAFFC0205149A0
:1003B0000860FFF7B4FF47F23050FFF7A1FFC020FD
:1003C0004C490860FFF7ABFF47F23050FFF798FF4A
:1003D000C02048490860FFF7A2FF47F23050FFF7FE
:1003E0008FFF802043490860FFF799FF47F23050A4
:1003F000FFF786FF282040490860FFF7A2FF47F279
:100400003050FFF77DFF0C203B490860FFF799FF54
:100410004FF44870FFF774FF062037490860FFF774
:1004200090FF4FF44870FFF76BFF012032490860DE
:10043000FFF787FF42F21070FFF762FF80202E491E
:100440000860FFF77EFF4FF44870FFF759FF00BDCB
:1004500000B5FFF75BFF2748006825494861102079
:100460008861202088611920FFF74AFF2020204959
:10047000C86100BD00B52048006800F0F0001D49CB
:1004800008600846006880000860FFF7E1FF1A482E
:10049000006800F00F0017490860084600688001F6
:1004A0000860FFF7D5FF4FF47A70FFF729FF00BD12
:1004B00000B5012010490860FFF743FF42F21070B9
:1004C000FFF71EFF00BD10B5034600240CE0185DC9
:1004D00009490860FFF7CEFF641C102C04D1C0202E
:1004E00005490860FFF72DFF185D0028EFD110BD0A
:1004F00000C00920040000100000001000BF4049A7
:10050000097D11F0200FFAD00A280CD10D213C4AA8
:10051000117000BF3A49097D11F0200FFAD00A216D
:10052000374A117001E036490870704710B503462C
:100530000C46D8B2FFF7E2FF184610BD00BF3048A6
:10054000007D10F0010FFAD02D480078704710B5EB
:100550000446FFF7F3FF03461846FFF7CFFF1846A0
:1005600010BD2848006840F05000264908608320EC
:10057000234908730C200870002008710846007A8F
:1005800040F007000872F2201D49283108701C480D
:10059000007B20F080001A490873704700204FF05C
:1005A000402108671820C860022048607047022078
:1005B0004FF04021486001204860704700204FF014
:1005C0004021486008468068704702214FF0402271
:1005D00051600121516000BF4FF040218968814284
:1005E000FAD300214FF040225160704700B5034616
:1005F0004FF47A7103FB01F0FFF7E7FF00BD000045
:1006000000C0004000C002400FB408491CB506AB52
:100610006A4679440090059800F0E9FA002069469E
:10062000FFF760FE1CBC5DF814FB0000CFFCFFFF71
:1006300070B50446856900683026C10600D42026BE
:10064000C00709D106E0D4E9012130469047206A6D
:10065000401C20626D1EF6D570BD70B504468569DC
:100660000068C00709D006E0D4E9012120209047A6
:10067000206A401C20626D1EF6D570BD2DE9F05F2A
:100680004FF0000B044689464FF0010AC0F820B035
:100690002046E168884700287DD0252802D0D4E98B
:1006A000012173E0E168204600268847C4F81CB0A9
:1006B00005460027C4F818B02A2D10D1204659F855
:1006C000041B04EB87029161E1688847012F05460E
:1006D00027D1E06900282FDA26F020062CE0A5F1CA
:1006E000300052460A28014619D2C2B104EB8700F5
:1006F00092468046816108E0D8F8180000EB80003F
:1007000005EB40003038C8F818002046E1688847FB
:100710000546303851460A2801D20029ECD1012F74
:100720000AD02E2D08D12046E16888477F1C054657
:10073000022F46F02006BFDBA069002803DA404202
:1007400046F00106A061F00701D026F01006CDB1F9
:10075000A5F14100192802D8203546F400664A4622
:100760002946204626604E46FFF7EAFC58B101288C
:1007700002D106F104098BE7F61D26F0070000F10F
:10078000080985E707E0D4E9012128469047206A57
:10079000401C20627CE7206ABDE8F09F70472DE98D
:1007A000FF4F0C4698468DB0D2E90010DDF868A0E6
:1007B000CDE90810C0F30A550DB94FF0FF350021FF
:1007C00008464FF00000099900F44000002905DABE
:1007D00000EB80004FF4400101EA50004FEA905BCB
:1007E000BBF1010F01DD4FF0FF3BDDE9080150EAED
:1007F000410016D1BAF1010F02D16FEA080207E0F9
:10080000302101E02154401C4045FBDB40460022E2
:10081000002121540D99C1E9010A0A6011B0BDE817
:10082000F08FA5F2FF3544F610504543CBF10000A0
:100830000B904FEA2549BAF1000F03D1A9EB080547
:100840006D1C01E0C8F100050B9A002D00DC5A4632
:10085000294601DAC5F1000103A800F05FFADDE9DD
:10086000081000F070FBA0F500501F388DE807005D
:100870000398002D09DD42F21F015A46084403A9DE
:100880000390684600F0D0FD08E0A0F500505A46FD
:100890001F3803A90390684600F0DAFD8DE80700D1
:1008A0000004000C03D04FF0FF356E0801E00E4647
:1008B0001546BAF1000F25D1474607E031462846D4
:1008C00000F0A8F9303205460E46E2557F1EF5D5F8
:1008D0000023012786EA030185EA03000843CDF8D7
:1008E0001C8003D0002709F1010005E020783028A2
:1008F00003D10027A9F101008146002FCDF81890FF
:1009000099D034E000200A9007460AE0112F0FDA50
:100910003146284600F07EF9303205460E46E25553
:100920007F1C002386EA030185EA03000843EDD11A
:10093000002386EA030185EA0300084310D1384604
:10094000002104E0235C625C6354491C2254401E75
:100950008142F7DBA7EB0800401ECDE9060706E061
:100960000A9820B94FF011084FF0000A63E7079A80
:100970000020A0540D98C0F808A00799416006997E
:1009800001604BE72DE9F04F04468846D21D22F066
:10099000070091B0D0E90010CDE90210014602989D
:1009A00000F08CFE0399CA0F4FF02D0106D122688A
:1009B0002B21930702D4202101EAC20103288B4690
:1009C00001D0072806DB5B4602464146204600F080
:1009D00067F905E12068800601D5E76900E0062790
:1009E0001120B8F1650F1ED0B8F1660F29D0B8F10B
:1009F000670F62D1012F00DA01270023112F009326
:100A000000DC3846034602AA06A90EA8FFF7C7FE77
:100A100020683D460026000734D40F98A84200DA2B
:100A2000054606A827E00023112F009300DA781C62
:100A3000034602AA06A90EA8FFF7B1FE00267D1CF8
:100A400026E001234FF0004902AA06A90EA8009350
:100A50003B46FFF7A4FEDDE90F50002610B90E99C2
:100A6000781C0D18781B02D47D1CC0F1FF36A5EB55
:100A7000070A22E06D1E012D04DD411911F8011C49
:100A80003029F7D00E98B84202DA10F1040F03DAD9
:100A90004FF0010A0E980FE0002802DC2D1A0644E0
:100AA00004E0401CA84201DD0E9D6D1C0E98801BC9
:100AB00000F1010A4FF0004081462068000703D48E
:100AC000AA4501DB4FF0FF3A0020B9F1004F0DF1CC
:100AD00017078DF8170024D04FF002082B20B9F12A
:100AE000000F01900BDA2D20C9F10009019006E0FA
:100AF000484600F07BF93031814607F8011DB8F116
:100B00000000A8F10108F3DCB9F1000FF0D1019861
:100B100007F8010D21684520090500D4652007F874
:100B2000010D04A8C01B00F107085FEA0B0000D00C
:100B30000120411901EBEA7101EB0800A169081AD3
:100B4000401EA0612068C00602D42046FFF770FD59
:100B5000BBF1000F06D05846D4E901219047206A26
:100B6000401C20622068C00625D52046FFF760FDA6
:100B700021E0002E07DB0F98B04204DD06A8D4E97F
:100B80000121805D02E0D4E9012130209047206AF4
:100B9000401C2062761CAAF101005FEA000A0AD11B
:100BA000FFF7A6FBC0680168405CD4E901219047CB
:100BB000206A401C2062281EA5F10105D9DC07E04F
:100BC000D4E9012117F8010B9047206A401C2062EC
:100BD000B8F10000A8F10108F2DC2046FFF73DFD66
:100BE00002201BE601694A1C02610878704710B5B3
:100BF0000C46194690B0CDE9024200220692044A02
:100C00007A44CDE9042001A8FFF738FD10B010BDEB
:100C1000E1FFFFFF30B5B0F10A024FEA900E71F12B
:100C200000034EEA817EB0EB0E0061EB91014FEACA
:100C3000101E4EEA017E10EB0E0041EB11114FEA3F
:100C4000102E4EEA016E10EB0E0041EB11214FEA1F
:100C5000104E4EEA014E10EB0E0041EB11414018D0
:100C600041F100014FEAD00040EA41704FEAD10162
:100C700010EB80054FEA810444EA907444EB0104D0
:100C80006D1944EB0404521BA3414FF0000348BF0D
:100C90000A3200D530BD401C41F1000130BD0000DA
:100CA0002DE9F04104461F4603260168072A01F496
:100CB000006003DB15A520B915A502E015A500B954
:100CC00015A521F010002060A069C01EA0610FB121
:100CD000401EA0612046FFF7ABFC0FB9206A06E07A
:100CE000D4E9012138469047206A401C2062C01C8C
:100CF000206204E0D4E9012115F8010B9047761E2B
:100D0000F8D22046FFF7A9FCBDE8F0814E414E0025
:100D10006E616E00494E4600696E66002DE9F0472F
:100D2000174681468AB0304A7A4407A838CA01F586
:100D3000DC511B3138C038CA04A8372238C091FBB7
:100D4000F2F0A0F1800502FB10141B3C02D56442B6
:100D5000012000E00020DFF890A080460026FA4441
:100D6000AAF1B20A0DE0E00709D03A4606EB4600C8
:100D70000AEB800107A800F06BFB07AB07C3641008
:100D8000761C002CEFD1DFF860A001AEFA44AAF186
:100D9000A40A16E0E80712D00AEB041090E80E004F
:100DA00086E80E00C068F84202D1039838440390E8
:100DB0003A4601A904A800F04BFB04AB07C36D1031
:100DC000641C002DE6D13A46B8F1000F07A904A82B
:100DD00002D000F029FB01E000F03AFBA9E807008F
:100DE0000AB0BDE8F08700007C1300004FF00A0154
:100DF000B0FBF1F202FB110110467047004870474A
:100E0000080000107546FFF7F9FFAE460500694679
:100E1000534620F00700854618B020B500F072F860
:100E2000BDE820404FF000064FF000074FF00008EB
:100E30004FF0000B21F00701AC46ACE8C009ACE86C
:100E4000C009ACE8C009ACE8C0098D46704704464B
:100E5000AFF300802046FFF78FF900004FF0013C10
:100E600050F8042B51F8043B9A4221D1A2EB0C0319
:100E7000934313EACC1317D150F8042B51F8043BD9
:100E80009A4215D1A2EB0C03934313EACC130BD176
:100E900050F8042B51F8043B9A4209D1A2EB0C0301
:100EA000934313EACC13DBD04FF0000070470000EF
:100EB000D01A01BAB1FA81F101F0180122FA01F059
:100EC000CB40C1F12001DBB2C0B2C01A2CFA01F351
:100ED000D11A914311EAC311E6D170470C484FF083
:100EE000553101600B484FF0553101600A48004709
:100EF000FEE7FEE7FEE7FEE7FEE7FEE7FEE7FEE7CA
:100F0000FEE7FEE705480649044A064B7047000025
:100F1000A8C10F40ACC10F40CD0000006800001018
:100F200068020010680000107047704770470000AA
:100F300003494FF01800ABBE7047000009000000E5
:100F40002600020070475FEA400C08BF91F0000FD6
:100F50004FEA8C234FEAC12243EA51514FEA1C5019
:100F600018BF00F5F0404FEA300018BF41F00041D3
:100F70005FEA6C5C00F02980BCF1FF3F08BF40F0E5
:100F800080407047130C06BF12044FF0100C4FF056
:100F9000000C130E04BF12020CF1080C130F04BF57
:100FA00012010CF1040C930F04BF92000CF1020C1F
:100FB000D30F04BF52000CF1010C11464FF0000298
:100FC000A0F11F00A0EB0C00704711F0004F08BF0C
:100FD000704731F000413FF4D5AF0B0C06BF090458
:100FE0004FF0100C4FF0000C0B0E04BF09020CF177
:100FF000080C0B0F04BF09010CF1040C8B0F04BF8C
:1010000089000CF1020CCB0F04BF49000CF1010C5C
:10101000CCF12003A0EB0C0022FA03F302FA0CF24D
:1010200041EA030100F10100704720F07F4C80EAA3
:10103000030023F07F47ACEB070303F57C5300F07C
:10104000004003F1FF032DE980494FEA154B09B435
:101050004FEA144325EA0B4E24EA03480FF2042614
:1010600006EB132749083E785FEA320203FB066766
:10107000C7F5000707FB06F64FEA54374FEAD64696
:1010800006F1020607FB066CCCF1005C4FEA1C4738
:101090002CEA074C07FB06F40CFB06F504EB15469F
:1010A0004FEA961634BF00204FF000404FEAD13788
:1010B00006FB07FC4FEA1C4C0CFB0BF7D21B03FB97
:1010C0000CF761EB07010CFB0EF7B0EB074072EB7E
:1010D00017420CFB08F734BFA2EB0742B2EB074202
:1010E00061EB17414FEA0C444FEA910706FB07FCFE
:1010F0004FEA1C4C0CFB0BF7B0EBC74072EB5732BE
:1011000003FB0CF734BFA2EBC742B2EBC74261EB63
:1011100057310CFB0EF7B0EBC70072EB57720CFBAC
:1011200008F734BFA2EBC702B2EBC70261EB5771FD
:10113000039F4FEA816141EA921104EBCC044FEA2C
:10114000D1374FEA826206FB07FC42EA90124FEA6F
:1011500080604FEA1C4C0CFB0BF7D21B03FB0CF717
:1011600061EB07010CFB0EF7B0EB074072EB174287
:101170000CFB08F734BFA2EB0742B2EB074261EB6E
:1011800017414FEA8C554FEA910704EB9C2406FB6C
:1011900007FC4FEA1C4C0CFB0BF7B0EBC74072EBA3
:1011A000573203FB0CF734BFA2EBC742B2EBC74286
:1011B00061EB57310CFB0EF7B0EBC70072EB5772C7
:1011C0000CFB08F734BFA2EBC702B2EBC70261EB1E
:1011D000577115EB4C254FEA816141EA92114FEAB4
:1011E00082624FEAD13742EA901206FB07FC44F1D3
:1011F00000044FEA80604FEA1C4C0CFB0BF7D21B3B
:1012000003FB0CF761EB07010CFB0EF7B0EB07409B
:1012100072EB17420CFB08F734BFA2EB0742B2EBAC
:10122000074261EB174115EB1C154FEA813141EA8A
:1012300092414FEA823242EA90424FEA80304FEACE
:101240000C7644F1000448EA03434EEA0B484FF0A1
:10125000000EB2EB080C71EB030724BF624639465F
:101260004EEB0E0E4FF0000B0018524149414BEB74
:101270000B0BB2EB080C71EB03077BF1000B24BFE7
:10128000624639464EEB0E0E4FF0000B00185241ED
:1012900049414BEB0B0BB2EB080C71EB03077BF1F5
:1012A000000B24BF624639464EEB0E0E51EA020790
:1012B00018BF46F0010616EB0E7655F1000254F108
:1012C000000103D5BDE88901BDE80088BDE88901BA
:1012D000BDE80048B619524141EB0101A3F10103F9
:1012E000704780807F7E7D7C7B7A79787776767593
:1012F0007473727171706F6E6E6D6C6C6B6A6A690B
:101300006868676666656464636362616160605FA4
:101310005F5E5E5D5D5C5C5B5B5A5A59595858571D
:101320005756565555555454535352525251515085
:1013300050504F4F4F4E4E4D4D4D4C4C4C4B4B4BD8
:101340004A4A4A494949484848474747474646461E
:101350004545454444444443434343424242424159
:101360004141002B26D4770021D01CB54FEA370726
:1013700003B44FF010004FF010014FF000000FBC0D
:10138000BDE810400BF1010BBBF1010F08BF5FEA94
:10139000170722BF12F1010211F101014FF00041C4
:1013A00043F1000300F0004043EA00007047F9D326
:1013B0005708DAE746EA064613F1400F4FEA1646A9
:1013C0001FDD13F1200FDFBF16430A460021203333
:1013D0005B42C8D0C3F1200746EA064602FA07F787
:1013E0004FEA164646EA0706C3F1200722FA03F23F
:1013F00001FA07F721FA03F14FF0000342EA07026E
:10140000B1E746EA020646EA06464FEA164646EACB
:101410000106BCBF46EA0646360C4FF000034FF00B
:1014200000024FF000019EE72DE9C048934630B41A
:1014300091E8380007C831EA400C48BF34EA430C51
:1014400003D5FFF7F2FDFFF78CFFF0BCBDE8008885
:101450002DE9C048934630B491E8380007C810F031
:10146000804F08BF13F0804F03D100F005F8FFF75D
:1014700078FFF0BCBDE8008820F07F4780EA0300D9
:1014800023F07F4C07EB0C03A3F57C5300F00040E6
:10149000A3F1FE0392F0000F00F0B38095F0000F6F
:1014A00000F077802DE901494FEA11404FEA1446D8
:1014B00021EA004800FB06FC24EA064708FB06F682
:1014C00007FB08F800FB07F718EB06484CEB164C37
:1014D0004FEA124B18EB07484FEA15464CEB174002
:1014E00022EA0B4E0BFB06FC25EA06470EFB06F62E
:1014F00007FB0EFE0BFB07F71EEB064E4CEB164CE4
:101500004FF000061EEB074E4CEB174B18EB0B0889
:1015100040F1000018EB0E0B58EB000840F1000002
:101520008F1A4FF000013CBFC943661B14BFB5EBD7
:10153000040C00213CBFC943F61B4FEA17444EEA96
:101540008E0E27EA04454FEA1C4704FB07622CEA8B
:10155000074C05FB07F70CFB05F604FB0CFC16EB30
:10156000074642EB174216EB0C4642EB1C421BEBC4
:10157000060658EB0202414146EA9E0601D5BDE847
:101580000189B619524141EB0101A3F10103BDE804
:1015900001894FEA14454FEA114724EA054621EA3A
:1015A000074C05FB07F406FB07F70CFB06F105FBF0
:1015B0000CFC11EB074144EB17444FEA124711EBC7
:1015C0000C4144EB1C4422EA074C05FB07F206FBE6
:1015D00007F70CFB06F605FB0CFC16EB074642EB87
:1015E000174216EB0C4642EB1C456A1854F10001F9
:1015F00048BF7047B619524141EB0101A3F1010305
:10160000704795F0000F37D04FEA11424FEA144768
:1016100021EA024624EA074C02FB07F106FB07F722
:101620000CFB06F402FB0CFC14EB074441EB1741E6
:101630004FEA154714EB0C4441EB1C4125EA074CDB
:1016400002FB07F506FB07F70CFB06F602FB0CFC9A
:1016500016EB074645EB174516EB0C4645EB1C42CF
:10166000121951F1000148BF7047B619524141EBC0
:101670000101A3F1010370474FEA14454FEA1147F6
:1016800024EA054621EA074C05FB07F106FB07F7AC
:101690000CFB06F24FF0000605FB0CFC12EB0742B8
:1016A00041EB174112EB0C4251EB1C4148BF704714
:1016B000921841EB0101A3F101037047490050EA80
:1016C000C12000D004204A0D01D040F0010040F2BA
:1016D000FF72B2EB515F01D140F00200012800D14E
:1016E0000520704710B500290AD00878002807D0D7
:1016F00005487844FFF7B2FB002801D0002010BD58
:101700000248784410BD0000EE090000E609000020
:1017100001F0004321F0004181EA410212F0FE4F46
:1017200008BF12F4600F00F02880A1F16051B1F5FC
:10173000801F1BDB02014FF0404C09D803D208BFC9
:101740004FF0000C0AE000F000521CEB820C05D4B4
:1017500010F100504FF0804C41F10001B1F17F6F6A
:1017600006DA43EAC10343EA5070704718467047EF
:101770004FF0FF0243EAC250704711F4801F01D1BD
:1017800018467047DFF818C041EA030150EA0132F9
:1017900040F01080AFF3008021F4E00070470000BB
:1017A0008800000402494FF0000000F0EEBB00008A
:1017B0000000F87F02494FF0000000F0E6BB000097
:1017C0000000F87F70B5DFF8ECC33CEA111418BFD5
:1017D0003CEA131400F09B8081EA03050CEA111423
:1017E00044EAD5741CEA131518BF11EA0C1F00F067
:1017F00074804FEAC1214FEAC32341EA505143EAC2
:101800005253A4EB050404F17F7441F0004143F00E
:1018100000434FEAC0204FEAC22200F0A9F8460573
:101820004FEAD02003EB244340EA41504FEAD12154
:1018300001EB035282EAC47116D05FEA460E38BF4C
:101840004FF0404610D314BF00234FF0004350F137
:10185000000041F1000110EAD37F4FF0804620EAFA
:10186000D37018BF4FF0404691EAC47FDFF848E3D9
:1018700016D412EA0E0F18BF3EEA010E10D070BD4A
:10188000E50754BF1EF4000F1EF4800F0ABF4FF08F
:1018900080464FF0404610F1010041F10001E3E7BE
:1018A000B4F1806FDEBF01F1C04101F000410020C2
:1018B00000DC70BDA8BFA1F1C04146F0140CA8BF68
:1018C0004CF0805CBDE870406FF0000041EA5001D0
:1018D00081EA10314FF00000704711EA0C1F00D070
:1018E0000AE013EA0C1F00F03D804FF0000081EA8F
:1018F000030101F0004170BD6FF0000081EA0301B7
:1019000041EA500181EA10314FF0000070BD4FEA0A
:10191000410EBEEB4C1F4FEA430508BF002898BF9D
:10192000B5EB4C1F08BF002ABDE87040DFF88CC241
:101930003FF638AFAFF300804FF4001C1CEB410FB3
:1019400009D11CEB430F0FD04B4021F0004148BFA1
:1019500041F0004170474FF0000081EA030303F0BB
:1019600000417047BDE870404FF000009449704757
:10197000E0B5054610B40C460FF238114FEA430C9F
:101980004FF0010E4FEA9C6C51F82CC04FF0000153
:10199000ACFB02604FF00006ECFB0301001841EBCA
:1019A0000101301A66EB0101E1FB0C6C4FF0000104
:1019B000ACFB02604FF00006ECFB0301001841EBAA
:1019C0000101301A66EB0101E1FB0C6C4FF00001E4
:1019D000ACFB0560ECFB0401A2FB0167E3FB006EBE
:1019E00017EB0E074FF0000EE3FB017E4EF1000EE9
:1019F000B6197F414EEB0E0E764275EB070764EB8E
:101A00000E0EECFB0E01ACFB07E64FF0000E80194A
:101A100041F10001A2FB0067B619E2FB017EE3FB86
:101A2000007E7F4103FB01EE4EEB0E0E76424FF03F
:101A3000000676EB070765EB0E0EACFB0E674FF06A
:101A4000000E4FEA857C4FEA9505C01941F100016F
:101A500045EA847549084FEA3000A2FB00677642E8
:101A6000E2FB017EE3FB007E7CEB070703FB01EE5C
:101A700065EB0E0EB51A77EB03047EF1000E24BF62
:101A80002E46274650F1000041F10001012E38BFDB
:101A9000012F404141EB010111F0004F18BF02231B
:101AA00001D0F0BC00BDF0BC4FF00103001841EBC9
:101AB000010100BDFCC00FFC830F3EF85F8D89F46F
:101AC000F0F0F0F0B50373EDEAA00EEA48B4C2E618
:101AD000E3388EE31C3870E0A6C867DDA70D74DA22
:101AE000E53594D7037BC7D4D2200DD2A87464CF38
:101AF000CCCCCCCCE68745CA7C0CCEC77BC865C5B0
:101B0000C3300CC3C0C0C0C00BFA82BE0B6452BC51
:101B1000A28B2EBAE00217B8B6600BB6B4400BB475
:101B2000C84216B2020B2CB05C414CAE849176AC2C
:101B3000AAAAAAAA573FE8A839052FA702B57EA5E9
:101B40003D0AD7A32BC337A2A0A0A0A0E765119F91
:101B50009DD8899D9CC0099CD9E7909A511A1F99DC
:101B6000ED25B4976CDA4F964F09F294C4859A9399
:101B70009224499209BCFD90EE23B88F6D35788E82
:101B800008CB3D8D8CC0088CFBF2D88A8940AE8989
:101B9000888888885FAB67877D8A4B865308348541
:101BA00042082184976E12838220088208040281F1
:101BB000000000800000FF070000F07F1400000418
:101BC0000000F87F10F0004314BF4142014643F08B
:101BD0008043B1FA81FC03F1F87311FA0CF1A3EB25
:101BE0000C534FEA415008BF704703EBE1217047A7
:101BF000DFF8B4C170B53CEA111E18BF3CEA131EF1
:101C000000F0A68081EA03050CEA111E4EEAD57E9B
:101C10001CEA131518BF11EA0C1F00F08F80AE44A8
:101C200021EA4C1123EA4C13AEF17F7E41F480117E
:101C300043F48013A1FB024CA0FB0365361955EB5E
:101C40000C05A1FB034C4CF10003A0FB021C16EB9E
:101C50000C06654153F10003094218BF46F0010626
:101C60004FF0140CB3F5007F4CF1000CCCF12004C4
:101C700025FA0CF203FA04F141EA020105FA04F034
:101C800026FA0CF240EA02006FF0030242EB2E4209
:101C900016FA04F401EB025585EACE7115D05FEA1D
:101CA000440C38BF4FF040440FD308BF43F000430B
:101CB00050F1000041F1000110EAD37F4FF0804461
:101CC00020EAD37018BF4FF0404415F0004FDFF802
:101CD000DCC017D415EA0C0F18BF3CEA010C11D078
:101CE00070BD5FEACE7454BF1CF4000F1CF4800F6B
:101CF0000ABF4FF080444FF0404410F1010041F121
:101D00000001E2E7BEF1806FA2BFA1F1C04144F043
:101D1000130C4CF0805CBDE8704006DA4FF0000018
:101D200001F1C04101F0004170476FF0000041EA4D
:101D3000500181EA10314FF0000070474FEACE7138
:101D40004FF0000070BD4FEACE714FF0000070BD43
:101D50004FEA4105B5EB4C1F4FEA430608BF002888
:101D600098BFB6EB4C1F08BF002ABDE87040DFF8F3
:101D700040C03FF617ADAFF300804FF4001CBCEB42
:101D8000410F98BFBCEB430F0AD84FF0000081EA27
:101D9000030101F0004141F0FE4141F47001704740
:101DA00004494FF0000070470000FF070000F07F7B
:101DB000130000040000F87F094248BF4CF4803C47
:101DC0004FF4C0634FEA115203F1010321EA0251BB
:101DD00022F400629A1A48BF6FF0FE0241F48011AB
:101DE000352A3CD830D0152A1ED3203A0CD90028E9
:101DF000C2F1200321FA02F001FA03F218BF42F007
:101E000001024FF0000130E0C2F1000302F12002B4
:101E100001FA03F120FA02F241EA020100FA03F2A8
:101E200008464FF0000120E0C2F1200310B400FA90
:101E300003F401FA03F320FA02F021FA02F1224638
:101E400010BC43EA000010E050EA01324FF00000FD
:101E50004FF000014FF0004218BF521C05E04FF058
:101E600001024FF000014FF000001CF4803F2CF401
:101E7000803C18BF41F00041124208BF7047520039
:101E800003D303D0401C41F1000170475FEAAC72FC
:101E9000F8D4FAD1401C41F1000120F00100F4E730
:101EA0007047704700F5000C1CF0FE4F09D0C110C0
:101EB0004FEA407001F1605158BF7047A1F1E04115
:101EC00070471CF4000F08D00146400008BF70475F
:101ED0004FF000004FEA30017047DFF814C04202B3
:101EE00040F00880AFF3008040F4E00110467047F6
:101EF00018000004014800F048B800000000C07F4E
:101F000000F0004343EAD05323F48073C3F1C103CC
:101F100023F0004117291FD8C3F1200310FA03F161
:101F2000C3F1200320F07F4040F4000020FA03F0CA
:101F300003F0004340EA03000DD00B46590009D3DB
:101F400018BF401C06D17FEAE27398BF401C38BF1F
:101F500020F0010070477047182903EB912318BF48
:101F60006FF00041013168BF03F0004009D6400224
:101F700003F0004000F1010004BF12F0004F20F018
:101F8000010070477047FEF7FDBC0CF00F03092BF2
:101F900008BF082000F02B800A2B0BD0082B18BF9D
:101FA000704708BF1CF0400F0AD04FF000004FF000
:101FB000000170471CF0400F18BF4FF00040704701
:101FC0001CF0100F08D020F0704300F07F4242EA6E
:101FD000D3014FEA4370704700F0604021F07F4228
:101FE00042EA000201F07F4040EA727070471CF440
:101FF000801F11D01CF4E02F03D06FEACC314900D0
:1020000070474FF04050EFF3008222F0704242EAF6
:10201000000282F3008870474FF000007047000014
:1020200064697374616E63653A00000002400000E9
:10203000000000A00000000005400000000000C8F3
:10204000000000000C4000000000409C0000000068
:10205000194000000020BCBE000000003440000019
:10206000BFC91B8E00000004B5400000504BCFD00C
:102070006607E2CF010000006C4100003E8251AAD9
:10208000DFEEA73401000000D9420000DCB5A0E279
:102090003A301F97FFFFFFFFB4450000FD25A0C8A1
:1020A000E9A3C14FFFFFFFFFFF3F000000000080DA
:1020B00000000000FF3F0000000000800000000062
:1020C000FC200000000000100800000008010000D3
:1020D000042100000800001060020000240100003C
:1020E0001C00000043000000F8FFFFFF0C00000090
:1020F0000E0000000F0000002E0000000000000095
:0421000000000000DB
:04000005000000CD2A
:00000001FF
